:100000000C9404010C9431010C9431010C943101D5
:100010000C9431010C9431010C9431010C94310198
:100020000C9431010C9431010C9431010C94310188
:100030000C9431010C9431010C9431010C94310178
:100040000C9431010C94BA0D0C9431010C943101D3
:100050000C9431010C9431010C9431010C94B602D2
:100060000C9431010C9412050C945A060C94310135
:100070000C9431010C9431010C9431010C94310138
:100080000C948C0D0C9431010C9431010C943101C1
:100090000C9452050C9499060C9431010C94310186
:1000A0000C9431010C9431010C945E0D0C943101CF
:1000B0000C9431010C9431010C9431010C94300DED
:1000C0000C9431010C9431010C9431010C94920583
:1000D0000C94D8060C9431010C94D2050C9417079B
:1000E0000C94310100002100240027002A002D007B
:1000F0003000330001010000040107010A01000083
:100100002200250028002B002E00310034000201BF
:100110000000050108010B0100002000230026005B
:1001200029002C002F00320000010000030106010D
:10013000090105050505070508080808020202026D
:100140000A0A080804040404010101010101010173
:100150000303030303030303040707070C0C0C0C3E
:100160000C0C0C0C02020202060606060606060627
:100170000B0B0B0B0B0B0B0B0102102020080810B4
:100180002040102040800201020108040201010207
:1001900004081020408080402010080402018004E0
:1001A000020180402010080402010804020101023B
:1001B0000408102040800102040810204080000044
:1001C000090A02080B0C0D070603040100000000D9
:1001D000000000000000000000000000000000001F
:1001E0000000000000000000000011100F000000DF
:1001F00000000000000000000000000000000000FF
:10020000000000003501870811241FBECFEFD1E2A6
:10021000DEBFCDBF00E00CBF12E0A0E0B2E0E6E040
:10022000F0E200E00BBF02C007900D92AC34B107C2
:10023000D9F71BBE15E0ACE4B2E001C01D92AE3EA2
:10024000B107E1F712E0C8E0D2E004C02297FE0156
:100250000E94FD0FC430D107C9F70E94A7020C9479
:1002600001100C94000008950895EF92FF920F93EF
:100270001F938CE492E00E94F90A8FE492E068EC0C
:1002800070E040E050E021E030E002E010E0A3E068
:10029000EA2EF12C0E94E80E89E692E068EC70E00C
:1002A00044E050E025E030E006E010E0F7E0EF2E1B
:1002B000F12C0E94E80E83E892E068EC70E048E0E0
:1002C00050E029E030E00AE010E0EBE0EE2EF12C07
:1002D0000E94E80E83EA92E00E9433011F910F9181
:1002E000FF90EF900895809131020E94E104892BE4
:1002F00039F480912F020E94E10420E0892B09F05B
:1003000021E0822F0895CF93DF93EC010E947301C7
:10031000882329F089E692E0BE010E94860EDF91D3
:10032000CF9108958AE090E00E948301089584EBC4
:1003300090E009C08CE492E00E944F0B80919D02F6
:1003400090919E02019790939E0280939D026091EE
:100350009D0270919E021616170664F310929E027B
:1003600010929D0213C08CE492E00E944F0B6FE04C
:1003700070E080E090E00E940C0380919D029091DB
:100380009E02019690939E0280939D0260919D0231
:1003900070919E02643B710534F308950F931F938F
:1003A0008091A3029091A4020797E9F483EA92E076
:1003B0000E9434018130910539F00297A1F4109226
:1003C000A4021092A3020FC00E9492010CC081ED02
:1003D00094E060E072E00E94E60A68EE73E080E07C
:1003E00090E00E940C0385E30E94E104892B79F3DD
:1003F0008091A1029091A20221E08C32920729F40F
:1004000010923A021092390208C0892B31F481E02F
:1004100090E090933A02809339028091A3029091E8
:10042000A402892B31F48FE492E06FEF7FEF0E94FA
:10043000860E809135020E94C70320912B023091D5
:100440002C02821793070CF501E010E01093A40230
:100450000093A30280912D0261E00E94AE048FE41C
:1004600092E06FEF7FEF0E94860E809135020E942E
:10047000C703BC0181ED94E04AE050E00E94C70A46
:100480001093A00200939F021FC08091A30290913D
:10049000A4020197A1F482E090E09093A4028093DB
:1004A000A3028FE492E06EEF7FEF0E94860E0E941F
:1004B00097010E9497011092A00210929F028091D2
:1004C0002D0260E00E94AE048091A3029091A402EC
:1004D000029711F40E9492011F910F9108951092BA
:1004E000A6021092A50287E090E09093A402809368
:1004F000A30280912D0261E00E94FB0381ED94E054
:1005000040E855E260E070E00E94560740913702F3
:1005100050913802662757FD6095762F89E692E064
:100520000E94E80D4091370250913802662757FD2E
:100530006095762F8FE492E00E94E80D609133027F
:10054000709134028CE492E00E94670C0895CF937E
:10055000DF930E9465030E946F02C1E1D6E00E9412
:10056000CE012097E1F30E941106F9CF1F920F925E
:100570000FB60F9211242F933F938F939F93AF93B6
:10058000BF938091AC029091AD02A091AE02B09168
:10059000AF023091B0020196A11DB11D232F2D5F36
:1005A0002D3720F02D570196A11DB11D2093B002CB
:1005B0008093AC029093AD02A093AE02B093AF02D1
:1005C0008091A8029091A902A091AA02B091AB02D9
:1005D0000196A11DB11D8093A8029093A902A0933A
:1005E000AA02B093AB02BF91AF919F918F913F91BF
:1005F0002F910F900FBE0F901F9018958FB7F89402
:100600002091AC023091AD024091AE025091AF0208
:100610008FBFB901CA0108959B01AC017FB7F8945F
:100620008091A8029091A902A091AA02B091AB0278
:1006300066B5A89B05C06F3F19F00196A11DB11DBD
:100640007FBFBA2FA92F982F8827860F911DA11D34
:10065000B11D62E0880F991FAA1FBB1F6A95D1F7D1
:10066000BC012DC0FFB7F8948091A8029091A90217
:10067000A091AA02B091AB02E6B5A89B05C0EF3FDE
:1006800019F00196A11DB11DFFBFBA2FA92F982FF8
:1006900088278E0F911DA11DB11DE2E0880F991FC3
:1006A000AA1FBB1FEA95D1F7861B970B885E934064
:1006B000C8F2215030404040504068517C4F2115D5
:1006C00031054105510571F60895789484B582602D
:1006D00084BD84B5816084BD85B5826085BD85B5E6
:1006E000816085BDEEE6F0E0808181608083E1E895
:1006F000F0E01082808182608083808181608083CD
:10070000E0E8F0E0808181608083E1EBF0E08081CF
:1007100084608083E0EBF0E0808181608083E1E9A8
:10072000F0E0808182608083808181608083E0E965
:10073000F0E0808181608083E1EAF0E08081826086
:100740008083808181608083E0EAF0E08081816045
:100750008083E1E2F1E0808182608083808181603A
:100760008083E0E2F1E0808181608083EAE7F0E06D
:1007700080818460808380818260808380818160C9
:1007800080838081806880831092C1000895382F13
:10079000863308F0365320917B00832F869586950B
:1007A000869590E08170907043E0880F991F4A957C
:1007B000E1F7277F282B20937B00377080913B0245
:1007C0008295880F880F807C832B80937C0080919A
:1007D0007A00806480937A0080917A0086FDFCCF55
:1007E0002091780040917900942F80E030E0282B10
:1007F000392BC9010895CF93DF93482F50E0CA01E8
:1008000088589E4FFC0134914E5C5E4FFA018491F2
:10081000882369F190E0880F991FFC01EC51FF4F8C
:10082000A591B491FC01E250FF4FC591D49166238C
:1008300051F42FB7F8948C91932F909589238C9332
:10084000888189230BC0623061F42FB7F8948C91B2
:10085000932F909589238C938881832B88832FBF36
:1008600006C09FB7F8948C91832B8C939FBFDF9128
:10087000CF910895893009F449C08A30A0F48430BA
:1008800051F1853040F4823079F1833000F58130C8
:1008900009F063C026C0873079F1883098F586303A
:1008A00009F05BC025C08D3009F442C08E3028F4B9
:1008B0008B30B1F18C30C0F52DC0803109F442C0CD
:1008C000813109F445C08F3009F047C037C08091AD
:1008D00080008F7703C0809180008F7D809380009F
:1008E000089584B58F7702C084B58F7D84BD089547
:1008F0008091B0008F7703C08091B0008F7D80938E
:10090000B0000895809190008F7707C0809190008B
:100910008F7D03C080919000877F80939000089521
:100920008091A0008F7707C08091A0008F7D03C0C9
:100930008091A000877F8093A0000895809120017E
:100940008F7703C0809120018F7D809320010895CF
:1009500080912001877F809320010895FF920F935B
:100960001F93F62E482F50E0CA0182549E4FFC017F
:100970002491CA0188589E4FFC0114914E5C5E4F31
:10098000FA0104910023C9F0222319F0822F0E945A
:100990003A04E02FF0E0EE0FFF1FE250FF4FA59169
:1009A000B4919FB7F894FF2021F48C911095812386
:1009B00002C08C91812B8C939FBF1F910F91FF9050
:1009C00008950F931F93482F50E0CA0182549E4F01
:1009D000FC012491CA0188589E4FFC0104914E5C91
:1009E0005E4FFA011491112319F420E030E015C094
:1009F000222319F0822F0E943A04812F90E0880F61
:100A0000991F885E9E4FFC01A591B4918C9120E0C6
:100A100030E0802311F021E030E0C9011F910F91F7
:100A2000089508951F920F920FB60F920BB60F9272
:100A300011242F933F934F938F939F93EF93FF93A3
:100A40008091C00082FD1DC04091C6002091F1023E
:100A50003091F2022F5F3F4F2F7330708091F3027D
:100A60009091F4022817390771F0E091F102F091AA
:100A7000F202EF54FD4F40833093F2022093F102D3
:100A800002C08091C600FF91EF919F918F914F918D
:100A90003F912F910F900BBE0F900FBE0F901F90A4
:100AA000189508951F920F920FB60F920BB60F92E2
:100AB00011242F933F934F938F939F93EF93FF9323
:100AC0008091C80082FD1DC04091CE002091790325
:100AD00030917A032F5F3F4F2F73307080917B03EB
:100AE00090917C032817390771F0E0917903F09118
:100AF0007A03E75CFC4F408330937A0320937903B9
:100B000002C08091CE00FF91EF919F918F914F9104
:100B10003F912F910F900BBE0F900FBE0F901F9023
:100B2000189508951F920F920FB60F920BB60F9261
:100B300011242F933F934F938F939F93EF93FF93A2
:100B40008091D00082FD1DC04091D600209101040B
:100B5000309102042F5F3F4F2F7330708091030458
:100B6000909104042817390771F0E0910104F09185
:100B70000204EF53FC4F408330930204209301049E
:100B800002C08091D600FF91EF919F918F914F917C
:100B90003F912F910F900BBE0F900FBE0F901F90A3
:100BA000189508951F920F920FB60F920BB60F92E1
:100BB00011242F933F934F938F939F93EF93FF9322
:100BC0008091300182FD1DC0409136012091890441
:100BD00030918A042F5F3F4F2F73307080918B04C8
:100BE00090918C042817390771F0E0918904F091F5
:100BF0008A04E75BFB4F408330938A042093890487
:100C000002C080913601FF91EF919F918F914F919A
:100C10003F912F910F900BBE0F900FBE0F901F9022
:100C20001895E091DD04F091DE04E05CFF4F8191C6
:100C3000919120813181821B930B8F739070892B4E
:100C400011F00E941105E091FF04F0910005E05CB5
:100C5000FF4F8191919120813181821B930B8F7382
:100C60009070892B11F00E945105E0912105F091BF
:100C70002205E05CFF4F8191919120813181821B9F
:100C8000930B8F739070892B11F00E949105E09166
:100C90004305F0914405E05CFF4F819191912081E3
:100CA0003181821B930B8F739070892B11F00E94FE
:100CB000D10508951F920F920FB60F920BB60F92A7
:100CC00011242F933F938F939F93EF93FF93209142
:100CD00035033091360380913703909138032817FC
:100CE000390731F48091C1008F7D8093C10014C019
:100CF000E0913703F0913803EB50FD4F2081809154
:100D000037039091380301968F7390709093380356
:100D1000809337032093C600FF91EF919F918F91AD
:100D20003F912F910F900BBE0F900FBE0F901F9011
:100D300018951F920F920FB60F920BB60F921124B7
:100D40002F933F938F939F93EF93FF932091BD0336
:100D50003091BE038091BF039091C00328173907DB
:100D600031F48091C9008F7D8093C90014C0E09157
:100D7000BF03F091C003E358FC4F20818091BF0373
:100D80009091C00301968F7390709093C0038093ED
:100D9000BF032093CE00FF91EF919F918F913F91E0
:100DA0002F910F900BBE0F900FBE0F901F901895B4
:100DB0001F920F920FB60F920BB60F9211242F9322
:100DC0003F938F939F93EF93FF932091450430912E
:100DD000460480914704909148042817390731F45C
:100DE0008091D1008F7D8093D10014C0E0914704A1
:100DF000F0914804EB5FFB4F208180914704909174
:100E0000480401968F739070909348048093470430
:100E10002093D600FF91EF919F918F913F912F9159
:100E20000F900BBE0F900FBE0F901F9018951F9242
:100E30000F920FB60F920BB60F9211242F933F9380
:100E40008F939F93EF93FF932091CD043091CE0425
:100E50008091CF049091D0042817390731F4809104
:100E600031018F7D8093310114C0E091CF04F09166
:100E7000D004E357FB4F20818091CF049091D004A0
:100E800001968F7390709093D0048093CF04209339
:100E90003601FF91EF919F918F913F912F910F908C
:100EA0000BBE0F900FBE0F901F901895AF92BF9280
:100EB000DF92EF92FF920F931F93CF93DF93EC019A
:100EC0007A018B01DD24403081EE580780E068070D
:100ED00080E0780711F0DD24D39491E0A92EB12CA5
:100EE000EC89FD89DD2069F0C50108A002C0880FEA
:100EF000991F0A94E2F7808360E079E08DE390E047
:100F000005C0108260E874E88EE190E0A8019701C6
:100F10000E94AA0F215030404040504056954795BE
:100F20003795279580E12030380720F0DD2011F03B
:100F3000DD24D6CFE889F9893083EA89FB892083CB
:100F400019A2EE89FF89408121E030E0C9010C8CB3
:100F500002C0880F991F0A94E2F7482B4083EE895C
:100F6000FF894081C9010D8C02C0880F991F0A9426
:100F7000E2F7482B4083EE89FF894081C9010E8C3E
:100F800002C0880F991F0A94E2F7482B4083EE892C
:100F9000FF8980810F8C02C0220F331F0A94E2F771
:100FA000209528232083DF91CF911F910F91FF90EF
:100FB000EF90DF90BF90AF900895DC011C96ED910B
:100FC000FC911D97E05CFF4F2191319180819181CF
:100FD000281B390B2F733070C9010895DC011C9652
:100FE000ED91FC911D97E05CFF4F20813181E05431
:100FF000F040DF01AE5BBF4F8D919C911197281798
:10100000390719F42FEF3FEF07C08D919C91E80F3E
:10101000F91F8081282F30E0C9010895DC011C965A
:10102000ED91FC911D97E05CFF4F20813181E054F0
:10103000F040DF01AE5BBF4F8D919C911197281757
:10104000390719F42FEF3FEF10C08D919C91119744
:10105000E80FF91F20818D919C91119701968F7354
:10106000907011969C938E9330E0C9010895DC0135
:1010700091968C919197882339F05496ED91FC913B
:101080005597808186FFF9CF91961C920895CF9352
:10109000DF93EC01EE85FF85E05CFF4F208131811D
:1010A000E054F0402F5F3F4F2F733070DF01AE5B95
:1010B000BF4F8D919C91119728173907D1F3E05CB0
:1010C000FF4F80819181E054F040E80FF91F608369
:1010D000EE85FF85E05CFF4F31832083EE89FF8939
:1010E000208181E090E00F8C02C0880F991F0A9444
:1010F000E2F7282B208381E089A3EC89FD89808198
:101100008064808381E090E0DF91CF9108951F9308
:101110001092D4041092D30428EE33E040E050E063
:101120002093D5043093D6044093D7045093D80429
:1011300060E472E07093D2046093D10481EB92E09A
:101140009093DE048093DD0485EF92E09093E004B9
:101150008093DF0485EC90E09093E2048093E104B7
:1011600084EC90E09093E4048093E30480EC90E0BE
:101170009093E6048093E50481EC90E09093E8047A
:101180008093E70482EC90E09093EA048093E90472
:1011900086EC90E09093EC048093EB0414E01093C1
:1011A000ED04B3E0B093EE04A7E0A093EF04F5E004
:1011B000F093F004E1E0E093F1041092F604109251
:1011C000F5042093F7043093F8044093F904509306
:1011D000FA047093F4046093F30489E393E090932A
:1011E00000058093FF048DE793E0909302058093C0
:1011F00001058DEC90E090930405809303058CEC41
:1012000090E0909306058093050588EC90E090931C
:1012100008058093070589EC90E090930A05809378
:1012200009058AEC90E090930C0580930B058EECF9
:1012300090E090930E0580930D0510930F05B093E9
:101240001005A0931105F0931205E0931305109279
:101250001805109217052093190530931A0540932D
:101260001B0550931C05709316056093150581ECC2
:1012700093E0909322058093210585E094E090937C
:1012800024058093230585ED90E0909326058093B7
:10129000250584ED90E0909328058093270580ED47
:1012A00090E090932A058093290581ED90E090933A
:1012B0002C0580932B0582ED90E090932E05809372
:1012C0002D0586ED90E09093300580932F051093C7
:1012D0003105B0933205A0933305F0933405E093C4
:1012E000350510923A051092390520933B0530934D
:1012F0003C0540933D0550933E057093380560933F
:10130000370589E494E090934405809343058DE884
:1013100094E0909346058093450585E391E0909392
:1013200048058093470584E391E090934A058093B4
:10133000490580E391E090934C0580934B0581E350
:1013400091E090934E0580934D0582E391E0909358
:10135000500580934F0586E391E09093520580936A
:10136000510510935305B0935405A0935505F09380
:101370005605E09357051F910895CF92DF92EF92A3
:10138000FF920F931F93CF93DF937C016B018A0130
:10139000C0E0D0E00FC0D6016D916D01D701ED9195
:1013A000FC910190F081E02DC7011995C80FD91F5C
:1013B000015010400115110571F7CE01DF91CF9159
:1013C0001F910F91FF90EF90DF90CF900895EF92D3
:1013D000FF920F931F938C01DC01ED91FC91019022
:1013E000F081E02D6DE019957C01D801ED91FC9123
:1013F0000190F081E02DC8016AE019959C012E0D45
:101400003F1DC9011F910F91FF90EF900895CF9359
:10141000DF93EC016115710519F420E030E00FC095
:10142000DB010D900020E9F71197A61BB70BE881AF
:10143000F9810280F381E02DAD0119959C01C9016C
:10144000DF91CF9108954F925F927F928F929F92FA
:10145000AF92BF92CF92DF92EF92FF920F931F93C2
:10146000DF93CF93CDB7DEB7A1970FB6F894DEBF69
:101470000FBECDBF2C01742ECB01223008F42AE020
:1014800019A231E2C32ED12CCC0EDD1E822E99245E
:10149000AA24BB24672D752FA50194010E94AA0FD1
:1014A00079018A01C801B701A50194010E946C0F5E
:1014B000472D461B0894C108D1084A3014F4405DFA
:1014C00001C0495CF6014083E114F10401051105F6
:1014D00021F07E2C5F2DC801DDCFC201B6010E9434
:1014E000070AA1960FB6F894DEBF0FBECDBFCF910D
:1014F000DF911F910F91FF90EF90DF90CF90BF9001
:10150000AF909F908F907F905F904F900895CF9273
:10151000DF92EF92FF920F931F93CF93DF93EC0133
:101520006A017B012115310541F4E881F9810190BF
:10153000F081E02D642F19951FC02A303105D1F4B8
:1015400077FF17C0E881F9810190F081E02D6DE20D
:1015500019958C0144275527BA014C195D096E096C
:101560007F09CE012AE00E94230A9801280F391F23
:1015700004C02AE00E94230A9C01C901DF91CF9197
:101580001F910F91FF90EF90DF90CF900895CF9231
:10159000DF92EF92FF920F931F936C017B019A01F0
:1015A0000027F7FC0095102FB801A7010E94870AB9
:1015B0008C01C6010E94E709080F191FC8011F917D
:1015C0000F91FF90EF90DF90CF900895EF92FF92F0
:1015D0000F931F937C010E94070A8C01C7010E9490
:1015E000E709080F191FC8011F910F91FF90EF9095
:1015F0000895FC0180915905803390F480838F5FBA
:1016000080935905815090E0FC01EE0FFF1FE80F19
:10161000F91FE65AFA4F88EB9BE092838183089585
:101620008FEF80830895FC0120812033B8F58181FC
:10163000992787FD909548E850E0481B590B440FC7
:10164000551F440F551F6417750784F08281992731
:1016500087FD909548E552E0481B590B440F551FF4
:10166000440F551F641775070CF4AB0142505040EE
:10167000CA01AA2797FDA095BA2F880F991FAA1F04
:10168000BB1F4FB7F89430E0F901EE0FFF1FE20FD8
:10169000F31FE65AFA4F928381834FBF0895AF92AA
:1016A000BF92CF92DF92EF92FF920F931F93CF934F
:1016B000DF93EC019B0182E0603278070CF048C0B8
:1016C00077FF03C020E030E005C0653B710514F0F2
:1016D00024EB30E000D00F92B901882777FD809588
:1016E000982F2981332727FD3095E8E8AE2EB12CBD
:1016F000A21AB30AAA0CBB1CAA0CBB1CCC24B7FCB4
:10170000C094DC2CEA81FF27E7FDF09528E532E064
:101710002E1B3F0B220F331F220F331F442737FD91
:101720004095542FEDB7FEB7218332834383548312
:1017300020E030E040E050E004EBE02EF12C012D01
:10174000112D0E94230F9B010F900F900F900F906F
:10175000CE01B9010E94130BDF91CF911F910F9120
:10176000FF90EF90DF90CF90BF90AF900895CF9211
:10177000DF92EF92FF921F93CF93DF93EC01162F2E
:101780007A0169018881803308F093C0862F61E077
:101790000E94FB03888190E0FC01EE0FFF1FE80F21
:1017A000F91FE65AFA4F1F738081807C812B80835A
:1017B00080E292E08E199F0964E070E00E94970F2A
:1017C000698380E699E08C199D0964E070E00E94CD
:1017D000970F6A83A8818A2F6CE00E948B0F682F75
:1017E00070E0AB01440F551F460F571F440F551FA4
:1017F000440F551F20E030E0C901840F951FFC0104
:10180000EE0FFF1FE80FF91FE65AFA4F808186FDA1
:1018100044C02F5F3F4F2C30310571F753C01092F9
:10182000800082E0809381001092850010928400F5
:10183000B19A80916F00826080936F002EC06230F9
:10184000710569F41092900082E0809391001092EB
:1018500095001092940088BB809371001EC0633085
:10186000710569F41092A00082E08093A1001092AB
:10187000A5001092A40089BB809372000EC0672B54
:1018800061F41092200182E08093210110922501E1
:10189000109224018ABB809373008A2F90E0FC0190
:1018A000EE0FFF1FE80FF91FE65AFA4F80818064A0
:1018B00080838881DF91CF911F91FF90EF90DF901F
:1018C000CF9008956130710509F0B9CFA8CF40E2FB
:1018D00052E020E639E00E94B70B0895EF92FF92A4
:1018E0000F931F93CF93DF938B017A01EC01DC01FF
:1018F000A651BA4F8C9187FF04C0FB011182108260
:1019000037C0AE01440F551F4C0F5D1F440F551FCC
:10191000440F551F2C91332727FD3095240F351F79
:101920008091590590E02817390714F58C91992773
:1019300087FD9095840F951FFC01EE0FFF1FE80FA8
:10194000F91FE65AFA4F808186FF12C08C919927C1
:1019500087FD9095840F951FFC01EE0FFF1FE80F88
:10196000F91FE65AFA4F80818F7360E00E94AE043F
:10197000DE01A651BA4F8C918F5F8C93AE01440F5C
:10198000551F4C0F5D1F440F551F440F551F2C91C1
:10199000332727FD3095240F351F8091590590E09E
:1019A000281739070CF04DC08C918C300CF049C0D1
:1019B000F801208131818C91992787FD9095840FC2
:1019C000951FFC01EE0FFF1FE80FF91FE65AFA4FB3
:1019D00081819281280F391FF701318320838C91F7
:1019E000992787FD9095840F951FFC01EE0FFF1F2F
:1019F000E80FF91FE65AFA4F808186FF2AC08C91C2
:101A0000992787FD9095840F951FFC01EE0FFF1F0E
:101A1000E80FF91FE65AFA4F80818F7361E00E9448
:101A2000AE0417C080E49CE904C0F8018081918174
:101A30000496F70191838083C651DA4F8FEF888334
:101A400008C0F80180819181049680549C4950F32C
:101A5000ECCFDF91CF911F910F91FF90EF90089500
:101A60001F920F920FB60F920BB60F9211242F9365
:101A70003F934F935F936F937F938F939F93AF9316
:101A8000BF93EF93FF9380E090E064E271E048E25F
:101A900051E00E946E0CFF91EF91BF91AF919F9129
:101AA0008F917F916F915F914F913F912F910F9007
:101AB0000BBE0F900FBE0F901F9018951F920F92A4
:101AC0000FB60F920BB60F9211242F933F934F93A3
:101AD0005F936F937F938F939F93AF93BF93EF9396
:101AE000FF9383E090E064EA70E048EA50E00E94EF
:101AF0006E0CFF91EF91BF91AF919F918F917F916C
:101B00006F915F914F913F912F910F900BBE0F906E
:101B10000FBE0F901F9018951F920F920FB60F9245
:101B20000BB60F9211242F933F934F935F936F93B4
:101B30007F938F939F93AF93BF93EF93FF9382E035
:101B400090E064E970E048E950E00E946E0CFF917B
:101B5000EF91BF91AF919F918F917F916F915F9125
:101B60004F913F912F910F900BBE0F900FBE0F9092
:101B70001F9018951F920F920FB60F920BB60F92EF
:101B800011242F933F934F935F936F937F938F9382
:101B90009F93AF93BF93EF93FF9381E090E064E84E
:101BA00070E048E850E00E946E0CFF91EF91BF9109
:101BB000AF919F918F917F916F915F914F913F91E5
:101BC0002F910F900BBE0F900FBE0F901F90189586
:101BD000CF92DF92EF92FF920F931F936C017A01E5
:101BE0008B01FC0120853185442737FD4095542F1A
:101BF00060E67AEE80E090E00E94CC0FCA01B90165
:101C0000A80197010E94CC0FF601248335834683F7
:101C100057831F910F91FF90EF90DF90CF90089521
:101C20000F931F93CF93DF93EC018B018A859B85E4
:101C3000029731F56130710589F06230710524F445
:101C40006115710541F01CC06230710571F063309F
:101C50007105B1F40DC08E8560E002C08E8561E033
:101C60000E94AE04888961E009C08E8561E002C0EF
:101C70008E8560E00E94AE04888960E00E94AE0418
:101C80008A859B850497E9F501301105A1F00230A2
:101C900011051CF4012B41F034C002301105D1F0C4
:101CA0000330110571F51DC08E8561E00E94AE0400
:101CB000888960E006C08E8560E00E94AE04888955
:101CC00061E00E94AE048A8961E00E94AE048C89C2
:101CD00060E015C08E8560E00E94AE04888961E0F6
:101CE00006C08E8561E00E94AE04888960E00E9493
:101CF000AE048A8960E00E94AE048C8961E00E9493
:101D0000AE04DF91CF911F910F9108950F931F9310
:101D1000CF93DF93EC011616170624F481E090E0D0
:101D20009983888377FF02C0198218828B0177FF1D
:101D300046C0109501951F4F42C00E94FE022E8999
:101D40003F89488D598D621B730B840B950B2C8139
:101D50003D814E815F81621773078407950768F3A1
:101D60000E94FE026E8B7F8B888F998F888199816C
:101D70002C853D85019761F42F5F3F4F3D872C8770
:101D8000888599852817390771F41D861C860BC034
:101D9000232B21F4888599859D878C878C859D854B
:101DA00001979D878C87015010408C859D8564E04C
:101DB00070E00E94970FBC01CE010E94100E011529
:101DC000110509F0BACFDF91CF911F910F910895BE
:101DD000CF92DF92EF92FF920F931F936C01842FAB
:101DE000F601158614861382128211821082168AD9
:101DF000178A108E118E7187608746875787318BBF
:101E0000208B138B028BF58AE48A61E00E94FB032E
:101E1000F601808961E00E94FB03F601828961E09E
:101E20000E94FB03F601848961E00E94FB0384E0C9
:101E300090E0F601938782871F910F91FF90EF90BA
:101E4000DF90CF9008952F923F924F925F926F92C2
:101E50007F928F929F92AF92BF92CF92DF92EF923A
:101E6000FF920F931F93DF93CF93CDB7DEB73B0164
:101E70004C0119012A016E897F89888D998D6A1913
:101E80007B098C099D09621A730A840A950AA401C8
:101E900093010E946C0FE218F30804091509A801C8
:101EA00097010E94CC0F2A0D3B1D4C1D5D1DB901F1
:101EB000CA01CF91DF911F910F91FF90EF90DF90BA
:101EC000CF90BF90AF909F908F907F906F905F90DA
:101ED0004F903F902F900895629FD001739FF00123
:101EE000829FE00DF11D649FE00DF11D929FF00DAA
:101EF000839FF00D749FF00D659FF00D9927729FE1
:101F0000B00DE11DF91F639FB00DE11DF91FBD016B
:101F1000CF0111240895991B79E004C0991F9617E9
:101F200008F0961B881F7A95C9F78095089597FB4E
:101F3000092E07260AD077FD04D049D006D000200C
:101F40001AF4709561957F4F0895F6F790958195F5
:101F50009F4F0895A1E21A2EAA1BBB1BFD010DC0C5
:101F6000AA1FBB1FEE1FFF1FA217B307E407F50749
:101F700020F0A21BB30BE40BF50B661F771F881F25
:101F8000991F1A9469F760957095809590959B01BB
:101F9000AC01BD01CF01089597FB092E05260ED097
:101FA00057FD04D0D7DF0AD0001C38F45095409577
:101FB000309521953F4F4F4F5F4F0895F6F790951D
:101FC0008095709561957F4F8F4F9F4F0895AA1B05
:101FD000BB1B51E107C0AA1FBB1FA617B70710F014
:101FE000A61BB70B881F991F5A95A9F78095909546
:101FF000BC01CD010895EE0FFF1F0590F491E02D77
:062000001994F894FFCFD3
:1020060057616974696E6720666F7220736F6D65BC
:102016006F6E6520746F20686974206D65206F6E21
:102026002070696E2035332E2E2E003E030D000ED5
:10203600000F00120037001400010001000000002C
:0C2046004708BD09DD070E08EE0737084B
:00000001FF
