:100000000C9404010C9431010C9431010C943101D5
:100010000C9431010C9431010C9431010C94310198
:100020000C9431010C9431010C9431010C94310188
:100030000C9431010C9431010C9431010C94310178
:100040000C9431010C945A0D0C9431010C94310133
:100050000C9431010C9431010C9431010C94560232
:100060000C9431010C94B2040C94FA050C943101F7
:100070000C9431010C9431010C9431010C94310138
:100080000C942C0D0C9431010C9431010C94310121
:100090000C94F2040C9439060C9431010C94310147
:1000A0000C9431010C9431010C94FE0C0C94310130
:1000B0000C9431010C9431010C9431010C94D00C4E
:1000C0000C9431010C9431010C9431010C943205E3
:1000D0000C9478060C9431010C9472050C94B706BC
:1000E0000C94310100002100240027002A002D007B
:1000F0003000330001010000040107010A01000083
:100100002200250028002B002E00310034000201BF
:100110000000050108010B0100002000230026005B
:1001200029002C002F00320000010000030106010D
:10013000090105050505070508080808020202026D
:100140000A0A080804040404010101010101010173
:100150000303030303030303040707070C0C0C0C3E
:100160000C0C0C0C02020202060606060606060627
:100170000B0B0B0B0B0B0B0B0102102020080810B4
:100180002040102040800201020108040201010207
:1001900004081020408080402010080402018004E0
:1001A000020180402010080402010804020101023B
:1001B0000408102040800102040810204080000044
:1001C000090A02080B0C0D070603040100000000D9
:1001D000000000000000000000000000000000001F
:1001E0000000000000000000000011100F000000DF
:1001F00000000000000000000000000000000000FF
:10020000000000003301270811241FBECFEFD1E208
:10021000DEBFCDBF00E00CBF12E0A0E0B2E0E6E43C
:10022000FFE100E00BBF02C007900D92A834B107B8
:10023000D9F71BBE15E0A8E4B2E001C01D92A53EAF
:10024000B107E1F712E0C8E0D2E004C02297FE0156
:100250000E949D0FC430D107C9F70E9447020C9439
:10026000A10F0C940000EF92FF920F931F9388E46C
:1002700092E00E94990A8BE492E068EC70E040E022
:1002800050E021E030E002E010E0A3E0EA2EF12CA3
:100290000E94880E85E692E068EC70E044E050E051
:1002A00025E030E006E010E0F7E0EF2EF12C0E94B0
:1002B000880E8FE792E068EC70E048E050E029E0BB
:1002C00030E00AE010E0EBE0EE2EF12C0E94880E08
:1002D0001F910F91FF90EF90089584EB90E009C07B
:1002E00088E492E00E94EF0A8091990290919A022C
:1002F000019790939A02809399026091990270916C
:100300009A021616170664F310929A021092990236
:1003100013C088E492E00E94EF0A6FE070E080E092
:1003200090E00E94AC028091990290919A0201960D
:1003300090939A02809399026091990270919A0227
:10034000643B710534F308950CC088EC94E060E0E0
:1003500072E00E94860A68EE73E080E090E00E94FE
:10036000AC0285E30E948104892B79F380919D0280
:1003700090919E0221E08C32920729F4109236026D
:100380001092350208C0892B31F481E090E09093FF
:100390003602809335028BE492E06FEF7FEF0E948C
:1003A000260E809131020E94670320912B0230912A
:1003B0002C02821793071CF581E090E090939C0239
:1003C00080939B0280912D0261E00E944E048BE499
:1003D00092E06CEF7FEF0E94260E8BE492E06CEFD0
:1003E0007FEF0E94260E809131020E946703BC01BC
:1003F00088EC94E04AE050E00E94670A08958091FA
:100400009B0290919C02019771F48BE492E06BEF58
:100410007FEF0E94260E0E946D010E946D011092D6
:100420009C0210929B0280912D0260E00E944E047B
:10043000089580912D0261E00E949B0388EC94E076
:1004400040E855E260E070E00E94F6064091330219
:1004500050913402662757FD6095762F85E692E02D
:100460000E94880D4091330250913402662757FD57
:100470006095762F8BE492E00E94880D60912F02A8
:100480007091300288E492E00E94070C0895CF93A7
:10049000DF930E9405030E941902C1EBD5E00E9480
:1004A000A4012097E1F30E94B105F9CF1F920F92AA
:1004B0000FB60F9211242F933F938F939F93AF9377
:1004C000BF938091A3029091A402A091A502B09144
:1004D000A6023091A7020196A11DB11D232F2D5F09
:1004E0002D3720F02D570196A11DB11D2093A70295
:1004F0008093A3029093A402A093A502B093A602B6
:1005000080919F029091A002A091A102B091A202BD
:100510000196A11DB11D80939F029093A002A0930C
:10052000A102B093A202BF91AF919F918F913F9191
:100530002F910F900FBE0F901F9018958FB7F894C2
:100540002091A3023091A4024091A5025091A602ED
:100550008FBFB901CA0108959B01AC017FB7F89420
:1005600080919F029091A002A091A102B091A2025D
:1005700066B5A89B05C06F3F19F00196A11DB11D7E
:100580007FBFBA2FA92F982F8827860F911DA11DF5
:10059000B11D62E0880F991FAA1FBB1F6A95D1F792
:1005A000BC012DC0FFB7F89480919F029091A002EA
:1005B000A091A102B091A202E6B5A89B05C0EF3FB1
:1005C00019F00196A11DB11DFFBFBA2FA92F982FB9
:1005D00088278E0F911DA11DB11DE2E0880F991F84
:1005E000AA1FBB1FEA95D1F7861B970B885E934025
:1005F000C8F2215030404040504068517C4F211596
:1006000031054105510571F60895789484B58260ED
:1006100084BD84B5816084BD85B5826085BD85B5A6
:10062000816085BDEEE6F0E0808181608083E1E855
:10063000F0E010828081826080838081816080838D
:10064000E0E8F0E0808181608083E1EBF0E0808190
:1006500084608083E0EBF0E0808181608083E1E969
:10066000F0E0808182608083808181608083E0E926
:10067000F0E0808181608083E1EAF0E08081826047
:100680008083808181608083E0EAF0E08081816006
:100690008083E1E2F1E080818260808380818160FB
:1006A0008083E0E2F1E0808181608083EAE7F0E02E
:1006B000808184608083808182608083808181608A
:1006C00080838081806880831092C1000895382FD4
:1006D000863308F0365320917B00832F86958695CC
:1006E000869590E08170907043E0880F991F4A953D
:1006F000E1F7277F282B20937B003770809137020A
:100700008295880F880F807C832B80937C0080915A
:100710007A00806480937A0080917A0086FDFCCF15
:100720002091780040917900942F80E030E0282BD0
:10073000392BC9010895CF93DF93482F50E0CA01A8
:1007400088589E4FFC0134914E5C5E4FFA018491B3
:10075000882369F190E0880F991FFC01EC51FF4F4D
:10076000A591B491FC01E250FF4FC591D49166234D
:1007700051F42FB7F8948C91932F909589238C93F3
:10078000888189230BC0623061F42FB7F8948C9173
:10079000932F909589238C938881832B88832FBFF7
:1007A00006C09FB7F8948C91832B8C939FBFDF91E9
:1007B000CF910895893009F449C08A30A0F484307B
:1007C00051F1853040F4823079F1833000F5813089
:1007D00009F063C026C0873079F1883098F58630FB
:1007E00009F05BC025C08D3009F442C08E3028F47A
:1007F0008B30B1F18C30C0F52DC0803109F442C08E
:10080000813109F445C08F3009F047C037C080916D
:1008100080008F7703C0809180008F7D809380005F
:10082000089584B58F7702C084B58F7D84BD089507
:100830008091B0008F7703C08091B0008F7D80934E
:10084000B0000895809190008F7707C0809190004C
:100850008F7D03C080919000877F809390000895E2
:100860008091A0008F7707C08091A0008F7D03C08A
:100870008091A000877F8093A0000895809120013F
:100880008F7703C0809120018F7D80932001089590
:1008900080912001877F809320010895FF920F931C
:1008A0001F93F62E482F50E0CA0182549E4FFC0140
:1008B0002491CA0188589E4FFC0114914E5C5E4FF2
:1008C000FA0104910023C9F0222319F0822F0E941B
:1008D000DA03E02FF0E0EE0FFF1FE250FF4FA5918B
:1008E000B4919FB7F894FF2021F48C911095812347
:1008F00002C08C91812B8C939FBF1F910F91FF9011
:1009000008950F931F93482F50E0CA0182549E4FC1
:10091000FC012491CA0188589E4FFC0104914E5C51
:100920005E4FFA011491112319F420E030E015C054
:10093000222319F0822F0E94DA03812F90E0880F82
:10094000991F885E9E4FFC01A591B4918C9120E087
:1009500030E0802311F021E030E0C9011F910F91B8
:10096000089508951F920F920FB60F920BB60F9233
:1009700011242F933F934F938F939F93EF93FF9364
:100980008091C00082FD1DC04091C6002091E80208
:100990003091E9022F5F3F4F2F7330708091EA0250
:1009A0009091EB022817390771F0E091E802F0917D
:1009B000E902E855FD4F40833093E9022093E802B5
:1009C00002C08091C600FF91EF919F918F914F914E
:1009D0003F912F910F900BBE0F900FBE0F901F9065
:1009E000189508951F920F920FB60F920BB60F92A3
:1009F00011242F933F934F938F939F93EF93FF93E4
:100A00008091C80082FD1DC04091CE0020917003EE
:100A1000309171032F5F3F4F2F73307080917203BD
:100A2000909173032817390771F0E0917003F091EA
:100A30007103E05DFC4F408330937103209370039A
:100A400002C08091CE00FF91EF919F918F914F91C5
:100A50003F912F910F900BBE0F900FBE0F901F90E4
:100A6000189508951F920F920FB60F920BB60F9222
:100A700011242F933F934F938F939F93EF93FF9363
:100A80008091D00082FD1DC04091D6002091F803D6
:100A90003091F9032F5F3F4F2F7330708091FA032D
:100AA0009091FB032817390771F0E091F803F0915A
:100AB000F903E854FC4F40833093F9032093F80383
:100AC00002C08091D600FF91EF919F918F914F913D
:100AD0003F912F910F900BBE0F900FBE0F901F9064
:100AE000189508951F920F920FB60F920BB60F92A2
:100AF00011242F933F934F938F939F93EF93FF93E3
:100B00008091300182FD1DC040913601209180040A
:100B1000309181042F5F3F4F2F733070809182049A
:100B2000909183042817390771F0E0918004F091C7
:100B30008104E05CFB4F4083309381042093800468
:100B400002C080913601FF91EF919F918F914F915B
:100B50003F912F910F900BBE0F900FBE0F901F90E3
:100B60001895E091D404F091D504E05CFF4F819199
:100B7000919120813181821B930B8F739070892B0F
:100B800011F00E94B104E091F604F091F704E05CEA
:100B9000FF4F8191919120813181821B930B8F7343
:100BA0009070892B11F00E94F104E0911805F091EA
:100BB0001905E05CFF4F8191919120813181821B69
:100BC000930B8F739070892B11F00E943105E09187
:100BD0003A05F0913B05E05CFF4F819191912081B6
:100BE0003181821B930B8F739070892B11F00E94BF
:100BF000710508951F920F920FB60F920BB60F92C8
:100C000011242F933F938F939F93EF93FF93209102
:100C10002C0330912D0380912E0390912F032817E0
:100C2000390731F48091C1008F7D8093C10014C0D9
:100C3000E0912E03F0912F03E451FD4F208180912C
:100C40002E0390912F0301968F73907090932F0332
:100C500080932E032093C600FF91EF919F918F9177
:100C60003F912F910F900BBE0F900FBE0F901F90D2
:100C700018951F920F920FB60F920BB60F92112478
:100C80002F933F938F939F93EF93FF932091B40300
:100C90003091B5038091B6039091B70328173907B7
:100CA00031F48091C9008F7D8093C90014C0E09118
:100CB000B603F091B703EC58FC4F20818091B60346
:100CC0009091B70301968F7390709093B7038093C0
:100CD000B6032093CE00FF91EF919F918F913F91AA
:100CE0002F910F900BBE0F900FBE0F901F90189575
:100CF0001F920F920FB60F920BB60F9211242F93E3
:100D00003F938F939F93EF93FF9320913C043091F7
:100D10003D0480913E0490913F042817390731F437
:100D20008091D1008F7D8093D10014C0E0913E046A
:100D3000F0913F04E450FC4F208180913E0490915B
:100D40003F0401968F73907090933F0480933E040C
:100D50002093D600FF91EF919F918F913F912F911A
:100D60000F900BBE0F900FBE0F901F9018951F9203
:100D70000F920FB60F920BB60F9211242F933F9341
:100D80008F939F93EF93FF932091C4043091C504F8
:100D90008091C6049091C7042817390731F48091D7
:100DA00031018F7D8093310114C0E091C604F09130
:100DB000C704EC57FB4F20818091C6049091C70473
:100DC00001968F7390709093C7048093C60420930C
:100DD0003601FF91EF919F918F913F912F910F904D
:100DE0000BBE0F900FBE0F901F901895AF92BF9241
:100DF000DF92EF92FF920F931F93CF93DF93EC015B
:100E00007A018B01DD24403081EE580780E06807CD
:100E100080E0780711F0DD24D39491E0A92EB12C65
:100E2000EC89FD89DD2069F0C50108A002C0880FAA
:100E3000991F0A94E2F7808360E079E08DE390E007
:100E400005C0108260E874E88EE190E0A801970187
:100E50000E944A0F215030404040504056954795DF
:100E60003795279580E12030380720F0DD2011F0FC
:100E7000DD24D6CFE889F9893083EA89FB8920838C
:100E800019A2EE89FF89408121E030E0C9010C8C74
:100E900002C0880F991F0A94E2F7482B4083EE891D
:100EA000FF894081C9010D8C02C0880F991F0A94E7
:100EB000E2F7482B4083EE89FF894081C9010E8CFF
:100EC00002C0880F991F0A94E2F7482B4083EE89ED
:100ED000FF8980810F8C02C0220F331F0A94E2F732
:100EE000209528232083DF91CF911F910F91FF90B0
:100EF000EF90DF90BF90AF900895DC011C96ED91CC
:100F0000FC911D97E05CFF4F21913191808191818F
:100F1000281B390B2F733070C9010895DC011C9612
:100F2000ED91FC911D97E05CFF4F20813181E054F1
:100F3000F040DF01AE5BBF4F8D919C911197281758
:100F4000390719F42FEF3FEF07C08D919C91E80FFF
:100F5000F91F8081282F30E0C9010895DC011C961B
:100F6000ED91FC911D97E05CFF4F20813181E054B1
:100F7000F040DF01AE5BBF4F8D919C911197281718
:100F8000390719F42FEF3FEF10C08D919C91119705
:100F9000E80FF91F20818D919C91119701968F7315
:100FA000907011969C938E9330E0C9010895DC01F6
:100FB00091968C919197882339F05496ED91FC91FC
:100FC0005597808186FFF9CF91961C920895CF9313
:100FD000DF93EC01EE85FF85E05CFF4F20813181DE
:100FE000E054F0402F5F3F4F2F733070DF01AE5B56
:100FF000BF4F8D919C91119728173907D1F3E05C71
:10100000FF4F80819181E054F040E80FF91F608329
:10101000EE85FF85E05CFF4F31832083EE89FF89F9
:10102000208181E090E00F8C02C0880F991F0A9404
:10103000E2F7282B208381E089A3EC89FD89808158
:101040008064808381E090E0DF91CF9108951F93C9
:101050001092CB041092CA0428EE33E040E050E036
:101060002093CC043093CD044093CE045093CF040E
:101070006CE372E07093C9046093C80488EA92E05C
:101080009093D5048093D4048CEE92E09093D7048F
:101090008093D60485EC90E09093D9048093D80493
:1010A00084EC90E09093DB048093DA0480EC90E091
:1010B0009093DD048093DC0481EC90E09093DF0456
:1010C0008093DE0482EC90E09093E1048093E0044E
:1010D00086EC90E09093E3048093E20414E0109394
:1010E000E404B3E0B093E504A7E0A093E604F5E0E0
:1010F000F093E704E1E0E093E8041092ED0410922D
:10110000EC042093EE043093EF044093F0045093EA
:10111000F1047093EB046093EA0480E393E090930E
:10112000F7048093F60484E793E09093F9048093A6
:10113000F8048DEC90E09093FB048093FA048CEC1F
:1011400090E09093FD048093FC0488EC90E09093F1
:10115000FF048093FE0489EC90E090930105809356
:1011600000058AEC90E090930305809302058EECD5
:1011700090E0909305058093040510930605B093C5
:101180000705A0930805F0930905E0930A0510925E
:101190000F0510920E052093100530931105409312
:1011A00012055093130570930D0560930C0588EBA1
:1011B00093E090931905809318058CEF93E090933A
:1011C0001B0580931A0585ED90E090931D05809393
:1011D0001C0584ED90E090931F0580931E0580ED23
:1011E00090E0909321058093200581ED90E090930D
:1011F00023058093220582ED90E09093250580934E
:10120000240586ED90E090932705809326051093A2
:101210002805B0932905A0932A05F0932B05E093A8
:101220002C05109231051092300520933205309331
:101230003305409334055093350570932F05609323
:101240002E0580E494E090933B0580933A0584E872
:1012500094E090933D0580933C0585E391E0909365
:101260003F0580933E0584E391E090934105809390
:10127000400580E391E0909343058093420581E32C
:1012800091E0909345058093440582E391E090932B
:1012900047058093460586E391E090934905809346
:1012A000480510934A05B0934B05A0934C05F09365
:1012B0004D05E0934E051F910895CF92DF92EF9276
:1012C000FF920F931F93CF93DF937C016B018A01F1
:1012D000C0E0D0E00FC0D6016D916D01D701ED9156
:1012E000FC910190F081E02DC7011995C80FD91F1D
:1012F000015010400115110571F7CE01DF91CF911A
:101300001F910F91FF90EF90DF90CF900895EF9293
:10131000FF920F931F938C01DC01ED91FC910190E2
:10132000F081E02D6DE019957C01D801ED91FC91E3
:101330000190F081E02DC8016AE019959C012E0D05
:101340003F1DC9011F910F91FF90EF900895CF931A
:10135000DF93EC016115710519F420E030E00FC056
:10136000DB010D900020E9F71197A61BB70BE88170
:10137000F9810280F381E02DAD0119959C01C9012D
:10138000DF91CF9108954F925F927F928F929F92BB
:10139000AF92BF92CF92DF92EF92FF920F931F9383
:1013A000DF93CF93CDB7DEB7A1970FB6F894DEBF2A
:1013B0000FBECDBF2C01742ECB01223008F42AE0E1
:1013C00019A231E2C32ED12CCC0EDD1E822E99241F
:1013D000AA24BB24672D752FA50194010E944A0FF2
:1013E00079018A01C801B701A50194010E940C0F7F
:1013F000472D461B0894C108D1084A3014F4405DBB
:1014000001C0495CF6014083E114F10401051105B6
:1014100021F07E2C5F2DC801DDCFC201B6010E94F4
:10142000A709A1960FB6F894DEBF0FBECDBFCF912E
:10143000DF911F910F91FF90EF90DF90CF90BF90C1
:10144000AF909F908F907F905F904F900895CF9234
:10145000DF92EF92FF920F931F93CF93DF93EC01F4
:101460006A017B012115310541F4E881F981019080
:10147000F081E02D642F19951FC02A303105D1F479
:1014800077FF17C0E881F9810190F081E02D6DE2CE
:1014900019958C0144275527BA014C195D096E092D
:1014A0007F09CE012AE00E94C3099801280F391F45
:1014B00004C02AE00E94C3099C01C901DF91CF91B9
:1014C0001F910F91FF90EF90DF90CF900895CF92F2
:1014D000DF92EF92FF920F931F936C017B019A01B1
:1014E0000027F7FC0095102FB801A7010E94270ADA
:1014F0008C01C6010E948709080F191FC8011F919E
:101500000F91FF90EF90DF90CF900895EF92FF92B0
:101510000F931F937C010E94A7098C01C7010E94B1
:101520008709080F191FC8011F910F91FF90EF90B5
:101530000895FC0180915005803390F480838F5F83
:1015400080935005815090E0FC01EE0FFF1FE80FE3
:10155000F91FEF5AFA4F88EB9BE09283818308953D
:101560008FEF80830895FC0120812033B8F58181BD
:10157000992787FD909548E850E0481B590B440F88
:10158000551F440F551F6417750784F082819927F2
:1015900087FD909548E552E0481B590B440F551FB5
:1015A000440F551F641775070CF4AB0142505040AF
:1015B000CA01AA2797FDA095BA2F880F991FAA1FC5
:1015C000BB1F4FB7F89430E0F901EE0FFF1FE20F99
:1015D000F31FEF5AFA4F928381834FBF0895AF9262
:1015E000BF92CF92DF92EF92FF920F931F93CF9310
:1015F000DF93EC019B0182E0603278070CF048C079
:1016000077FF03C020E030E005C0653B710514F0B2
:1016100024EB30E000D00F92B901882777FD809548
:10162000982F2981332727FD3095E8E8AE2EB12C7D
:10163000A21AB30AAA0CBB1CAA0CBB1CCC24B7FC74
:10164000C094DC2CEA81FF27E7FDF09528E532E025
:101650002E1B3F0B220F331F220F331F442737FD52
:101660004095542FEDB7FEB72183328343835483D3
:1016700020E030E040E050E004EBE02EF12C012DC2
:10168000112D0E94C30E9B010F900F900F900F9091
:10169000CE01B9010E94B30ADF91CF911F910F9142
:1016A000FF90EF90DF90CF90BF90AF900895CF92D2
:1016B000DF92EF92FF921F93CF93DF93EC01162FEF
:1016C0007A0169018881803308F093C0862F61E038
:1016D0000E949B03888190E0FC01EE0FFF1FE80F42
:1016E000F91FEF5AFA4F1F738081807C812B808312
:1016F00080E292E08E199F0964E070E00E94370F4B
:10170000698380E699E08C199D0964E070E00E948D
:10171000370F6A83A8818A2F6CE00E942B0F682FF5
:1017200070E0AB01440F551F460F571F440F551F64
:10173000440F551F20E030E0C901840F951FFC01C4
:10174000EE0FFF1FE80FF91FEF5AFA4F808186FD59
:1017500044C02F5F3F4F2C30310571F753C01092BA
:10176000800082E0809381001092850010928400B6
:10177000B19A80916F00826080936F002EC06230BA
:10178000710569F41092900082E0809391001092AC
:1017900095001092940088BB809371001EC0633046
:1017A000710569F41092A00082E08093A10010926C
:1017B000A5001092A40089BB809372000EC0672B15
:1017C00061F41092200182E08093210110922501A2
:1017D000109224018ABB809373008A2F90E0FC0151
:1017E000EE0FFF1FE80FF91FEF5AFA4F8081806458
:1017F00080838881DF91CF911F91FF90EF90DF90E0
:10180000CF9008956130710509F0B9CFA8CF40E2BB
:1018100052E020E639E00E94570B0895EF92FF92C4
:101820000F931F93CF93DF938B017A01EC01DC01BF
:10183000AF51BA4F8C9187FF04C0FB011182108217
:1018400037C0AE01440F551F4C0F5D1F440F551F8D
:10185000440F551F2C91332727FD3095240F351F3A
:101860008091500590E02817390714F58C9199273D
:1018700087FD9095840F951FFC01EE0FFF1FE80F69
:10188000F91FEF5AFA4F808186FF12C08C91992779
:1018900087FD9095840F951FFC01EE0FFF1FE80F49
:1018A000F91FEF5AFA4F80818F7360E00E944E0457
:1018B000DE01AF51BA4F8C918F5F8C93AE01440F14
:1018C000551F4C0F5D1F440F551F440F551F2C9182
:1018D000332727FD3095240F351F8091500590E068
:1018E000281739070CF04DC08C918C300CF049C092
:1018F000F801208131818C91992787FD9095840F83
:10190000951FFC01EE0FFF1FE80FF91FEF5AFA4F6A
:1019100081819281280F391FF701318320838C91B7
:10192000992787FD9095840F951FFC01EE0FFF1FEF
:10193000E80FF91FEF5AFA4F808186FF2AC08C9179
:10194000992787FD9095840F951FFC01EE0FFF1FCF
:10195000E80FF91FEF5AFA4F80818F7361E00E9400
:101960004E0417C080E49CE904C0F8018081918195
:101970000496F70191838083CF51DA4F8FEF8883EC
:1019800008C0F80180819181049680549C4950F3ED
:10199000ECCFDF91CF911F910F91FF90EF900895C1
:1019A0001F920F920FB60F920BB60F9211242F9326
:1019B0003F934F935F936F937F938F939F93AF93D7
:1019C000BF93EF93FF9380E090E064E271E048E220
:1019D00051E00E940E0CFF91EF91BF91AF919F914A
:1019E0008F917F916F915F914F913F912F910F90C8
:1019F0000BBE0F900FBE0F901F9018951F920F9265
:101A00000FB60F920BB60F9211242F933F934F9363
:101A10005F936F937F938F939F93AF93BF93EF9356
:101A2000FF9383E090E064EA70E048EA50E00E94AF
:101A30000E0CFF91EF91BF91AF919F918F917F918C
:101A40006F915F914F913F912F910F900BBE0F902F
:101A50000FBE0F901F9018951F920F920FB60F9206
:101A60000BB60F9211242F933F934F935F936F9375
:101A70007F938F939F93AF93BF93EF93FF9382E0F6
:101A800090E064E970E048E950E00E940E0CFF919C
:101A9000EF91BF91AF919F918F917F916F915F91E6
:101AA0004F913F912F910F900BBE0F900FBE0F9053
:101AB0001F9018951F920F920FB60F920BB60F92B0
:101AC00011242F933F934F935F936F937F938F9343
:101AD0009F93AF93BF93EF93FF9381E090E064E80F
:101AE00070E048E850E00E940E0CFF91EF91BF912A
:101AF000AF919F918F917F916F915F914F913F91A6
:101B00002F910F900BBE0F900FBE0F901F90189546
:101B1000CF92DF92EF92FF920F931F936C017A01A5
:101B20008B01FC0120853185442737FD4095542FDA
:101B300060E67AEE80E090E00E946C0FCA01B90185
:101B4000A80197010E946C0FF60124833583468318
:101B500057831F910F91FF90EF90DF90CF900895E2
:101B60000F931F93CF93DF93EC018B018A859B85A5
:101B7000029731F56130710589F06230710524F406
:101B80006115710541F01CC06230710571F0633060
:101B90007105B1F40DC08E8560E002C08E8561E0F4
:101BA0000E944E04888961E009C08E8561E002C010
:101BB0008E8560E00E944E04888960E00E944E0499
:101BC0008A859B850497E9F501301105A1F0023063
:101BD00011051CF4012B41F034C002301105D1F085
:101BE0000330110571F51DC08E8561E00E944E0421
:101BF000888960E006C08E8560E00E944E04888976
:101C000061E00E944E048A8961E00E944E048C8942
:101C100060E015C08E8560E00E944E04888961E016
:101C200006C08E8561E00E944E04888960E00E94B3
:101C30004E048A8960E00E944E048C8961E00E9413
:101C40004E04DF91CF911F910F9108950F931F9331
:101C5000CF93DF93EC011616170624F481E090E091
:101C60009983888377FF02C0198218828B0177FFDE
:101C700046C0109501951F4F42C00E949E022E89BA
:101C80003F89488D598D621B730B840B950B2C81FA
:101C90003D814E815F81621773078407950768F362
:101CA0000E949E026E8B7F8B888F998F888199818D
:101CB0002C853D85019761F42F5F3F4F3D872C8731
:101CC000888599852817390771F41D861C860BC0F5
:101CD000232B21F4888599859D878C878C859D850C
:101CE00001979D878C87015010408C859D8564E00D
:101CF00070E00E94370FBC01CE010E94B00D0115AB
:101D0000110509F0BACFDF91CF911F910F9108957E
:101D1000CF92DF92EF92FF920F931F936C01842F6B
:101D2000F601158614861382128211821082168A99
:101D3000178A108E118E7187608746875787318B7F
:101D4000208B138B028BF58AE48A61E00E949B034F
:101D5000F601808961E00E949B03F601828961E0BF
:101D60000E949B03F601848961E00E949B0384E04A
:101D700090E0F601938782871F910F91FF90EF907B
:101D8000DF90CF9008952F923F924F925F926F9283
:101D90007F928F929F92AF92BF92CF92DF92EF92FB
:101DA000FF920F931F93DF93CF93CDB7DEB73B0125
:101DB0004C0119012A016E897F89888D998D6A19D4
:101DC0007B098C099D09621A730A840A950AA40189
:101DD00093010E940C0FE218F30804091509A801E9
:101DE00097010E946C0F2A0D3B1D4C1D5D1DB90112
:101DF000CA01CF91DF911F910F91FF90EF90DF907B
:101E0000CF90BF90AF909F908F907F906F905F909A
:101E10004F903F902F900895629FD001739FF001E3
:101E2000829FE00DF11D649FE00DF11D929FF00D6A
:101E3000839FF00D749FF00D659FF00D9927729FA1
:101E4000B00DE11DF91F639FB00DE11DF91FBD012C
:101E5000CF0111240895991B79E004C0991F9617AA
:101E600008F0961B881F7A95C9F78095089597FB0F
:101E7000092E07260AD077FD04D049D006D00020CD
:101E80001AF4709561957F4F0895F6F790958195B6
:101E90009F4F0895A1E21A2EAA1BBB1BFD010DC086
:101EA000AA1FBB1FEE1FFF1FA217B307E407F5070A
:101EB00020F0A21BB30BE40BF50B661F771F881FE6
:101EC000991F1A9469F760957095809590959B017C
:101ED000AC01BD01CF01089597FB092E05260ED058
:101EE00057FD04D0D7DF0AD0001C38F45095409538
:101EF000309521953F4F4F4F5F4F0895F6F79095DE
:101F00008095709561957F4F8F4F9F4F0895AA1BC5
:101F1000BB1B51E107C0AA1FBB1FA617B70710F0D4
:101F2000A61BB70B881F991F5A95A9F78095909506
:101F3000BC01CD010895EE0FFF1F0590F491E02D37
:061F40001994F894FFCF94
:101F460057616974696E6720666F7220736F6D657D
:101F56006F6E6520746F20686974206D65206F6EE2
:101F66002070696E2035332E2E2E003E030D001292
:101F7600003700140001000100000000E7075D09BA
:081F86007D07AE078E07D707A7
:00000001FF
